:020000040800F2
:10000000F0FF012061690208B5690208C1DC01083E
:10001000C9DC0108D1DC0108D9DC010800000000BE
:10002000000000000000000000000000B9690208A4
:10003000BD69020800000000C1690208296F0108BB
:10004000B1690208B1690208B1690208B169020820
:10005000B1690208B1690208B1690208B169020810
:10006000B1690208B1690208B16902088D56010838
:10007000B1690208B1690208F5550108B1690208C1
:10008000B1690208B1690208B1690208B1690208E0
:10009000B1690208B1690208B1690208B1690208D0
:1000A000B1690208B1690208B1690208B1690208C0
:1000B000B1690208B1690208B1690208B1690208B0
:1000C000B1690208B1690208B1690208B1690208A0
:1000D000B1690208810F0108D10F0108B169020856
:1000E000B1690208B1690208C5690208B16902086C
:1000F000B1690208B1690208B1690208B169020870
:10010000B1690208B1690208B1690208B16902085F
:1001100021100108B1690208B1690208B169020839
:10012000B1690208B16902087D550108B169020888
:10013000B1690208B1690208B1690208B16902082F
:10014000B1690208B1690208B1690208F5690208DB
:10015000B1690208A10D0108B16902087110010816
:10016000B1690208B1690208B1690208B1690208FF
:10017000B1690208B1690208B1690208B1690208EF
:08018000B1690208B16902082F
:100188003437310000000000000000000D424C48E8
:10019800656C69F47D0000000201000004010000A4
:1001A8004A756E202034203230323131303A3436BC
:1001B8003A343500000000000D0E0A0D0B0E0E0F2C
:1001C8004D41494E5F5245564953494F4E00000034
:1001D8005355425F5245564953494F4E000000005F
:1001E8004C41594F55545F5245564953494F4E005B
:1001F800505F4741494E0000495F4741494E000062
:10020800474F5645524E4F525F4D4F4445000000F0
:100218004C4F575F564F4C544147455F4C494D49E9
:10022800540000004D4F544F525F4741494E000063
:100238004D4F544F525F49444C450000535441526E
:100248005455505F504F57455200000050574D5F6E
:100258004652455155454E43590000004D4F544FA5
:10026800525F444952454354494F4E00494E5055F8
:10027800545F50574D5F504F4C41524954590000FC
:100288004D4F44450000000050524F4752414D4DDC
:10029800494E475F42595F54580000005245415249
:1002A8004D5F41545F53544152540000474F5645E7
:1002B800524E4F525F53455455505F544152474533
:1002C80054000000535441525455505F52504D0051
:1002D800535441525455505F414343454C45524154
:1002E80054494F4E00000000564F4C545F434F4D49
:1002F80050000000434F4D4D55544154494F4E5FF7
:1003080054494D494E47000044414D50494E475FBE
:10031800464F524345000000474F5645524E4F52F4
:100328005F52414E47450000535441525455505F67
:100338004D4554484F44000050504D5F4D494E5F65
:100348005448524F54544C450000000050504D5FE3
:100358004D41585F5448524F54544C4500000000DA
:10036800424545505F535452454E4754480000009B
:10037800424541434F4E5F535452454E47544800FF
:10038800424541434F4E5F44454C415900000000EF
:100398005448524F54544C455F5241544500000054
:1003A80044454D41475F434F4D50454E5341544995
:1003B8004F4E00004245435F564F4C54414745005D
:1003C80050504D5F43454E5445525F5448524F5428
:1003D800544C450053504F4F4C55505F54494D4570
:1003E8000000000054454D50455241545552455F58
:1003F80050524F54454354494F4E00004C4F575F9D
:1004080052504D5F504F5745525F50524F544543DD
:1004180054494F4E0000000050574D5F494E50550B
:100428005400000050574D5F44495448455200005D
:100438004252414B455F4F4E5F53544F50000000AE
:100448004C45445F434F4E54524F4C004C41594F1A
:10045800555400004D4355004E414D4500000000E5
:100468006D34774643496E7466000000AA55000053
:100478004E4F2043414D455241205349474E414C30
:1004880000000000515549434B53494C5645520012
:100498000302010256435020436F6E6669670000ED
:1004A80056435020496E74657266616365000000AA
:1004B80053544D3332205669727475616C20436F02
:1004C8006D506F727420696E204853206D6F64659B
:1004D8000000000053544D33322056697274756120
:1004E8006C20436F6D506F727420696E20465320E4
:1004F8004D6F64650000000030783830303030309F
:1005080030000000696E6465780000006B700000C0
:100518006B6900006B640000617578006C71695F3D
:10052800736F757263650000747970650000000070
:100538006375746F66665F66726571006779726F5E
:1005480000000000647465726D00000064746572D8
:100558006D5F64796E616D69635F656E61626C651C
:1005680000000000647465726D5F64796E616D6986
:10057800635F6D696E000000647465726D5F647915
:100588006E616D69635F6D61780000006E616D6515
:10059800000000006461746574696D650000000006
:1005A8006469676974616C5F69646C650000000068
:1005B8006473686F745F74696D650000696E766551
:1005C80072745F79617700006779726F5F6F726923
:1005D800656E746174696F6E00000000746F7271EB
:1005E80075655F626F6F7374000000007468726FE6
:1005F80074746C655F626F6F737400006D6F746FF5
:10060800725F70696E730000747572746C655F74E4
:1006180068726F74746C655F70657263656E740080
:10062800656C656D656E7473000000007069645FC9
:1006380070726F66696C65007069645F7261746579
:1006480073000000737469636B5F70726F66696C26
:1006580065000000737469636B5F72617465730091
:100668006269675F616E676C65000000736D616C3D
:100678006C5F616E676C65007468726F74746C652A
:100688005F647465726D5F617474656E75617469B9
:100698006F6E000073696C76657277617265000031
:1006A80062657461666C6967687400006C6576657C
:1006B8006C5F6D61785F616E676C65006C6F775F0A
:1006C800726174655F6D756C6974706C69657200D0
:1006D800737469636B735F6465616462616E6400FF
:1006E80072780000736D6172745F617564696F0080
:1006F8006D657461000000006D6F746F720000001A
:1007080073657269616C000066696C7465720000DB
:100718006F7364006368616E6E656C007069640075
:10072800766F6C74616765006C69706F5F63656C88
:100738006C5F636F756E74007069645F766F6C745C
:100748006167655F636F6D70656E736174696F6E05
:100758000000000076626174746C6F77000000001E
:1007680061637475616C5F626174746572795F76D8
:100778006F6C7461676500007265706F7274656490
:100788005F74656C656D657472795F766F6C7461A2
:100798006765000072635F726174650073757065E8
:1007A800725F7261746500006578706F0000000008
:1007B8006D61785F72617465000000006163726F3B
:1007C8005F6578706F000000616E676C655F6578C3
:1007D800706F0000616363656C657261746F7200AD
:1007E8007472616E736974696F6E00007461726708
:1007F80065745F6E616D65006769745F76657273B5
:10080800696F6E006665617475726573000000003B
:1008180072785F70726F746F636F6C007175696363
:100828005F70726F746F636F6C5F76657273696FF8
:100838006E00000075736172745F706F727473007C
:100848006779726F5F6964007464615F616374697A
:10085800766500007464615F627265616B706F69D0
:100868006E7400007464615F70657263656E740015
:1008780064656661756C740000000000000000008B
:100888000000000000000000000000000000000060
:10089800000000000000000000009040580201081D
:1008A80000000000000000000001020300002041D9
:1008B80002000000010000000000B4420100000036
:1008C8000000B44201000000000082430000000064
:1008D800000000000100000000008C42000082437C
:1008E800A7000000515549434B53494C5645523FC8
:1008F8003F3F3F3F3F3F3F3F040700002D070000B9
:1009080055070000A9060000E1000000E10600000C
:1009180021030000810600008400000000000000A0
:1009280000000000000000000000000000000000BF
:1009380000000000000000000000000000000000AF
:10094800000000000000000000000000000000009F
:10095800000000000000000000000000000000008F
:100968000000000000005744000057440000FA430C
:10097800CDCC4C3FCDCC4C3F9A99193FCDCC0C3FB8
:1009880000000000CDCC0C3F6666A63F6666A63F19
:100998006666A63F3333333F3333333F3333333F16
:1009A800CDCCCC3ECDCCCC3ECDCCCC3E0000824292
:1009B8000000003F0AD7233C00000C0C0C040C0D6F
:1009C8000C0C0C0C0C0C0C000000000000000000CB
:1009D800000000000000000000000000000000000F
:1009E80000000000000000000000000000000000FF
:1009F80000000000000000000000000000000000EF
:100A080000000000000000000000000000000000DE
:100A180000000000000000000000000000000000CE
:100A280000000000000000000000000000000000BE
:100A3800000000000000C03F0000C03F0000803FF1
:100A48009A99993E9A99993E000000000000A040AA
:100A580000000000000020410000404001000000AC
:100A68003333B33E3333333F000100003333534055
:100A7800666686406666864000000000640D0008D1
:100A88000000B6420000B64200009D4200008C42C1
:100A980000008C4200008C4200005842000058427E
:100AA8000000C04001000000740D000800009D42D5
:100AB8000000B64200009D4200008C4200008C42BB
:100AC80000008C420000DC4100001E420000C040D3
:100AD80002000000800D000800006E4200009D42E8
:100AE80000007C4200008C4200008C4200008C42D6
:100AF8000000DC4100001E420000C040030000006E
:100B0800900D000800003C4200003C420000624298
:100B180000008C4200008C4200008C420000DC4146
:100B28000000DC410000904004000000A00D000817
:100B38000000EA420000EA420000164300009A4220
:100B480000009A4200009A420000A6420000A64215
:100B58000000504105000000B80D00080000F642F2
:100B68000000F6420000164300009A4200009A4234
:100B780000009A420000B6420000B6420000504110
:100B880006000000E40D00080000FE420000FE42DE
:100B98000000144300009A4200009A4200009A4262
:100BA8000000CA420000CA4200005041070000008D
:100BB800FC0D000800000743000007430000A543A0
:100BC80000008C4200009642000096420000B242AB
:100BD8000000B2420000844208000000340E000801
:100BE8000000244200003C4200003C4200007042E9
:100BF80000007042000070420000A4410000E8417B
:100C08000000604009000000780E00080000F5426E
:100C18000000F54200009543000070420000704259
:100C28000000204200800043008000430000C041D3
:100C38000A000000A00E0008000020430000204326
:100C48000080B4430000CD420000CD420000A04225
:100C5800000009430000094300006C420B0000003B
:100C6800E40E000800001A4300001A4300009543F0
:100C7800000070420000704200002042000029433A
:100C8800000029430000A8420C0000001C0F0008C7
:100C980000802743008027430000954300007042EE
:100CA800000070420000204200804243008042431E
:100CB8000000A8420D000000500F00080000394352
:100CC800000039430080B4430000704200007042C5
:100CD8000000704200005243000052430000A84246
:100CE8000E00000069666C696768745F73756363FA
:100CF80065785F655F66340039663031363865621D
:100D080038346236323032633838666133313034E1
:100D180037623431343231326663633636326131A8
:100D2800000000005042300050423100504339006A
:100D3800504338004E4F4E45000000005553415275
:100D4800545F310055534152545F3200555341525C
:100D5800545F340055534152545F36005457522063
:100D68003C383A312032696E000000005457522056
:100D7800383A312033696E005457522031323A31B3
:100D88002034696E000000005457522031343A3143
:100D98002035696E0000000036356D6D20317320F6
:100DA80062727573686C6573732077686F6F700013
:100DB80036356D6D2031732062727573686C65739A
:100DC800732077686F6F70202D2048616E6665729A
:100DD8002045646974696F6E0000000037356D6DD9
:100DE8002062727573686C6573732077686F6F70B3
:100DF80000000000366D6D202620376D6D204162A1
:100E080064756374696F6E205069647320666F72CD
:100E18002077686F6F707320285465616D20416C6E
:100E280069656E77686F6F702900000035696E20FC
:100E38004368616D656C656F6E2C2054202D204DC4
:100E48006F746F72203233303620323630306B5642
:100E5800204851203578342E337833202D20426FA6
:100E6800626E6F76612065646974696F6E00000058
:100E7800424F535320372077697468203731362022
:100E88006D6F746F727320616E642034366D6D20DF
:100E980050726F7073000000284F4C442920366D43
:100EA8006D206578706572696D656E74616C20413E
:100EB8007765736F6D6553617563652032303030C7
:100EC800306B76205069647320285465616D204129
:100ED8006C69656E77686F6F70290000284F4C4405
:100EE8002920424F5353203620262037202D2036E4
:100EF800313520616E6420373136206D6F746F7222
:100F0800732C20686D3833302034366D6D20707244
:100F18006F707300284F4C442920424F5353203898
:100F28002E30202D20383136206D6F746F72732C5F
:100F3800206B696E676B6F6E672036366D6D20703B
:100F4800726F707300000000284F4C442920424FF4
:100F5800535320382E35202D20383230206D6F74B1
:100F68006F72732C206B696E676B6F6E67203636F5
:100F78006D6D2070726F7073000000006C6F6F7081
:100F880074696D655F6175746F6465746563740019
:100F98006C6F6F7074696D6500000000757074691E
:100FA8006D6500006370755F6C6F61640000000020
:100FB800766261747466696C7400000076626174AC
:100FC8007466696C745F636F727200007662617434
:100FD800745F636F6D7000007672656666696C7425
:100FE8000000000072785F66696C74657265640061
:100FF80072785F6F766572726964650072785F7285
:101008007373690072785F7374617475730000009C
:101018007468726F74746C65000000007468727391
:10102800756D0000616363656C5F72617700000035
:10103800616363656C0000006779726F5F74656D4A
:10104800700000006779726F5F72617700000000BE
:10105800474573744700000061747469747564656A
:1010680000000000736574706F696E740000000002
:101078006572726F720000006572726F72766563D6
:10108800740000007069646F7574707574000000F6
:1010980062696E645F656E61626C6500726177009B
:1010A8000C040003000100006C2A0020782A0020AC
:1010B800842A0020902A00209C2A0020A82A0020A8
:1010C8004C1100085811000864110008701100083C
:1010D8007C1100088811000894110008A01100086C
:1010E800AC110008B8110008C4110008D01100089C
:1010F800DC110008E8110008F411000800120008CB
:101108000C12000818120008241200084100000000
:1011180042000000460000003100000032000000DC
:1011280033000000340000003500000036000000E5
:1011380037000000380000004F4646004F4E2000A0
:101148004E2F41004348414E4E454C20352020004B
:101158004348414E4E454C20362020004348414EDE
:101168004E454C20372020004348414E4E454C20E8
:10117800382020004348414E4E454C20392020005D
:101188004348414E4E454C20313020004348414EA3
:101198004E454C20313120004348414E4E454C20AD
:1011A800313220004348414E4E454C203133200017
:1011B8004348414E4E454C20313420004348414E6F
:1011C8004E454C20313520004348414E4E454C2079
:1011D80031362000414C57415953204F4646200094
:1011E800414C57415953204F4E20200047455354F6
:1011F80055524520415558004552524F5220202003
:10120800202020005041434B455420524154450072
:101218004348414E4E454C202020200050524F5408
:101228004F434F4C202020001411000818110008CB
:101238001C0300081C1100085002000800000000F0
:101248000000000000000000201100082411000820
:10125800281100082C11000830110008341100086A
:10126800381100083C11000820110008241100085A
:10127800281100082C1100080000000000000000E0
:1012880000000000000000004011000844110008A0
:1012980048110008000000000000000000000000E5
:1012A80000000000000000000000803F0000803FB8
:1012B8000000803F0000803F0000803F0000803F2A
:1012C8000000803F0000803F0000803F00000000D9
:1012D8000000404000000000000040400000000006
:1012E80000004040000000000000404000000000F6
:1012F80000004040000000000000404000000000E6
:10130800A4707D3F00000000A4707D3F0000000035
:10131800A4707D3F0D06120617060D071207170762
:101328000D0812081708000042455441464C494729
:1013380048542052415445530000000000524F4C7D
:101348004C00000000000000000000000000000049
:10135800000050495443480000000000000000000D
:101368000000000000000059415700000000000084
:10137800000000000000000000000000524320525E
:10138800415445000000000000000000000000007B
:10139800005355504552205241544500000000006A
:1013A8000000000000004558504F000000000000F9
:1013B80000000000000000000000005341564520D6
:1013C800414E4420455849540000000000000000E8
:1013D8000100010801100118020002080210021899
:1013E8000300030803100318040004080410041879
:1013F8000500050805100518000000000000004061
:10140800000048420000FA430000000000000040CD
:10141800000048420000FA43000000000000803F3E
:10142800000048420000FA43000048420000FA4326
:1014380012031204120512061207120812090000FC
:101448000101010201030104010501060107000071
:10145800442D5445524D2046494C544552530000A2
:10146800000000000050415353203120545950458A
:1014780000000000000000000000504153532031DC
:1014880020465245510000000000000000000050B6
:1014980041535320322054595045000000000000A9
:1014A800000000005041535320322046524551005D
:1014B80000000000000000000044594E414D49431F
:1014C800000000000000000000000000000046527C
:1014D8004551204D494E000000000000000000006A
:1014E80000000046524551204D41580000000000C0
:1014F80000000000000000005341564520414E44C2
:101508002045584954000000000000000000000079
:101518000801040304040405040604070408040974
:10152800040E0000010001000100000046494C546F
:1015380045525300000000000000000000000000B9
:10154800004759524F000000000000000000000052
:10155800000000000000442D5445524D00000000DA
:101568000000000000000000000000000B0107045C
:10157800070500001C1D0000000102030405090AFC
:101588000B0C00000B0E0E0E0E0E0E0E0E0C0000B5
:10159800110211031104110511061107110811098F
:1015A800110A110B010101020103010401050106E1
:1015B800010701080109010A464C49474854204DD2
:1015C8004F44455300000000000000000041524D08
:1015D800494E470000000000000000000000000025
:1015E800000049444C452055500000000000000010
:1015F800000000000000004C4556454C4D4F444546
:1016080000000000000000000000000052414345B7
:101618004D4F44450000000000000000000000009D
:1016280000484F52495A4F4E000000000000000089
:10163800000000000000535449434B20424F4F53D1
:10164800540000000000000000000042555A5A45AE
:101658005200000000000000000000000000000030
:10166800545552544C450000000000000000000092
:1016780000000000004D4F544F5220544553540071
:101688000000000000000000000052535349000011
:1016980000000000000000000000000000000053EF
:1016A80041564520414E4420455849540000000009
:1016B80000000000090104020403040404050406F0
:1016C800040704080409040A040B040E00000000BF
:1016D80000000040000048420000FA4300000000FB
:1016E80000000040000048420000FA4312041205BE
:1016F800120612074759524F2046494C5445525337
:101708000000000000000000005041535320312029
:1017180054595045000000000000000000005041EE
:10172800535320312046524551000000000000006C
:1017380000000050415353203220545950450000B6
:1017480000000000000000005041535320322046A2
:1017580052455100000000000000000000534156AF
:101768004520414E442045584954000000000000DF
:1017780000000000010001004E4F4E45000000002F
:10178800000000000000000000000000002050548D
:101798003100000000000000000000000000000010
:1017A800000020505432000000000000000000003B
:1017B80000000000000000004C4556454C204D4FED
:1017C800444500000000000000000000004D4158A2
:1017D80020414E474C45000000000000000000007A
:1017E80000004C4556454C20535452454E475448EA
:1017F8000000000000000000171800000A0107049C
:1018080007050000000000000000A04100000000E3
:1018180000002041000000000000A041000000007E
:1018280000002041130618061307180701010201DA
:10183800010202024C4556454C204D4F44450000DC
:101848000000000000000000004B500000000000F5
:1018580000000000000000000000000000004B44F1
:101868000000000000000000000000000000000070
:10187800000000534D20414E474C452053545245DB
:101888004E475448000000004C524720414E474CF8
:101898004520535452454E47544800000053415682
:1018A8004520414E4420455849540000000000009E
:1018B800000000000A0115051A0501060107010EBE
:1018C8000000000066668640150500000101000062
:1018D8004C4F5720424154544552590000000000D3
:1018E8000000000000564F4C54532F43454C4C20E9
:1018F800414C4552540000000000534156452041D8
:101908004E442045584954000000000000000000E3
:101918000A010405040E00004D454E550000000064
:1019280000000000000000000000000000565458AD
:10193800000000000000000000000000000000009F
:10194800000050494453000000000000000000005F
:101958000000000000000046494C54455253000066
:101968000000000000000000000000005241544543
:10197800530000000000000000000000000000000C
:1019880000464C49474854204D4F444553000000F9
:101998000000000000004F534420454C454D454E83
:1019A8005453000000000000000000535045434914
:1019B800414C204645415455524553000000000013
:1019C8005243204C494E4B0000000000000000002C
:1019D80000000000005341564520414E4420455820
:1019E8004954000000000000000000000B03050639
:1019F800090A0C1F0D010703070407050706070757
:101A080007080709070A070B000000000000AA42A0
:101A180013050000010100000000000000000000A4
:101A28004C4556454C204D4F4445000000000000F1
:101A380000000000004D415820414E474C452044CD
:101A48004547524545530000000053415645204143
:101A58004E44204558495400000000000000000092
:101A68000A010105010E00004D4F544F5220424F0C
:101A78004F535420545950455300000000544F52BE
:101A880051554520424F4F535400000000000000BC
:101A980000005448524F54544C4520424F4F535421
:101AA8000000000000000000191A000007010704E8
:101AB80007050000000000000000C84111050000F3
:101AC8004449474954414C2049444C4500000000D2
:101AD80000000000004D4F544F522049444C45200F
:101AE8002500000000000000000053415645204139
:101AF8004E442045584954000000000000000000F2
:101B0800080509050A050B050C050D050E050F0549
:101B180010051105120513051405150516051705F9
:101B2800180519051A051B0543414C4C5349474EE6
:101B3800000000000000000000000000002D000070
:101B4800000000000000000000000000000000008D
:101B580000002D0000000000000000000000000050
:101B6800000000000000002D000000000000000040
:101B78000000000000000000000000002D00000030
:101B8800000000000000000000000000000000004D
:101B9800002D000000000000000000000000000010
:101BA8000000000000002D00000000000000000000
:101BB80000000000000000000000002D00000000F0
:101BC800000000000000000000000000000000000D
:101BD8002D000000000000000000000000000000D0
:101BE80000000000002D00000000000000000000C0
:101BF800000000000000000000002D0000000000B0
:101C08000000000000000000000000000000002D9F
:101C180000000000000000000000000000000000BC
:101C2800000000002D00000000000000000000007F
:101C38000000000000000000002D0000000000006F
:101C480000000000000000000000000000002D005F
:101C5800000000000000000000000000000000007C
:101C68000000002D0000000000000000000000003F
:101C780000000000000000002D000000000000002F
:101C8800000000000000000000000000002D00001F
:101C9800000000000000000000000000000000003C
:101CA80000002D00000000000000000000000000FF
:101CB800000000000000002D0000000000000000EF
:101CC8000000000000000000000000002D000000DF
:101CD80000000000000000000000000000000000FC
:101CE80000454449543A000000000000000000008C
:101CF8000000000000005341564520414E44204555
:101D08005849540000000000000000000B010806BC
:101D180009060A060B060C060D060E060F06100627
:101D280011061206130614061506160617061806D7
:101D380019061A061B060105010700000101020128
:101D480003010401050106010701080109010A014F
:101D58000B010C010D010E010F01100111011201FF
:101D680013011401140214031404140514061407AF
:101D780014081409140A140B4F53442044495350AF
:101D88004C4159204954454D530000000043414CF3
:101D98004C5349474E0000000000000000000000BE
:101DA80000004655454C474155474520564F4C5431
:101DB8005300000000000046494C54455245442059
:101DC800564F4C5453000000000000004759524F32
:101DD8002054454D500000000000000000000000A5
:101DE80000464C49474854204D4F444500000000E8
:101DF800000000000000525353490000000000009A
:101E0800000000000000000000000053544F50572D
:101E1800415443480000000000000000000000009A
:101E280053595354454D20535441545553000000C1
:101E380000000000005448524F54544C4500000024
:101E48000000000000000000000056545800000088
:101E58000000000000000000000000000000005327
:101E680041564520414E4420455849540000000041
:101E7800000000000601040204030404040504062B
:101E8800040704080409040A040B040E00060708E2
:101E9800090A0B0C0D0E00000F1011124F534420AD
:101EA800454C454D454E54530000000000000000CD
:101EB80000414444204F522052454D4F56450000A2
:101EC8000000000000004544495420504F53495435
:101ED800494F4E530000000000000045444954207B
:101EE80054455854205354594C45000000000000F4
:101EF800454449542043414C4C5349474E00000047
:101F0800000000000000000009010704070507069B
:101F180007070000000006060707080809090A0A5B
:101F28000B0B0C0C0D0D0E0E010112011801030212
:101F38000303030403050306030703080309030A4D
:101F4800030B030E14021A0214031A0314041A04CE
:101F580014051A0514061A0614071A0714081A088D
:101F680014091A09140A1A0A140B1A0B010102019E
:101F78000102020201030203010402040105020531
:101F88000106020601070207010802080109020901
:101F9800010A020A02030203020302030203020304
:101FA80002030203020302034F534420504F5349D4
:101FB80054494F4E53000000000000000041444ABD
:101FC8002058000000000000000000000000000091
:101FD800000041444A2059000000000000000000B1
:101FE8000000000000000043414C4C5349474E009C
:101FF8000000000000000000000000004655454CAD
:10200800474155474520564F4C54530000000000A7
:102018000046494C544552454420564F4C545300B1
:10202800000000000000455841435420564F4C54CE
:102038005300000000000000000000464C494748DB
:1020480054204D4F444500000000000000000000EF
:102058005253534900000000000000000000000037
:10206800000000000053544F5057415443480000AB
:102078000000000000000000000053595354454D73
:1020880020535441545553000000000000000054F0
:1020980048524F54544C4500000000000000000016
:1020A8000000000056545800000000000000000026
:1020B8000000000000000000005341564520414E3A
:1020C800442045584954000000000000000000006A
:1020D8004F53442054455854205354594C450000FC
:1020E800000000000043414C4C5349474E0000009B
:1020F800000000000000000000004655454C474124
:1021080055474520564F4C545300000000000046E8
:10211800494C544552454420564F4C5453000000F6
:1021280000000000455841435420564F4C5453007A
:10213800000000000000000000464C4947485420B9
:102148004D4F4445000000000000000000005253BD
:1021580053490000000000000000000000000000DB
:1021680000000053544F50574154434800000000AA
:10217800000000000000000053595354454D2053FF
:1021880054415455530000000000000000544852C8
:102198004F54544C450000000000000000000000AF
:1021A8000000565458000000000000000000000025
:1021B800000000000000005341564520414E4420D5
:1021C80045584954000000000000000008010402BE
:1021D8000403040404050406040704080409040AA3
:1021E800040B040E5049442050524F46494C452098
:1021F800310000000000000000524F4C4C0000006D
:10220800000000000000000000000000000050492D
:1022180054434800000000000000000000000000D7
:1022280000000059415700000000000000000000B5
:1022380000000000000000004B50000000000000FB
:10224800000000000000000000000000004B4900F2
:102258000000000000000000000000000000000076
:1022680000004B44000000000000000000000000D7
:10227800000000000000005341564520414E442014
:10228800455849540000000000000000504944200F
:1022980050524F46494C45203200000000000000D3
:1022A80000524F4C4C0000000000000000000000ED
:1022B800000000000000504954434800000000009E
:1022C8000000000000000000000000594157000015
:1022D80000000000000000000000000000000000F6
:1022E8004B5000000000000000000000000000004B
:1022F80000000000004B4900000000000000000042
:10230800000000000000000000004B440000000036
:102318000000000000000000000000000000005362
:1023280041564520414E442045584954000000007C
:1023380000000000000000000000C843000000008A
:102348000000C843000000000000C843000000006F
:102358000000C842000000000000C8420000000061
:102368000000C842000000000000F0420000000029
:102378000000F042000000000000F04201000101EE
:10238800010202000201020203000301030200002D
:102398000A06100616060A07100716070A08100884
:1023A80016080000010102010301010202020302F2
:1023B800010302030303000009010A0410041704BF
:1023C800040604070408020E5049442050524F46A0
:1023D800494C4553000000000000000000504944EB
:1023E8002050524F46494C45203100000000000063
:1023F80000005049442050524F46494C4520320075
:1024080000000000000000000901070407050000A3
:1024180004040000000000000000803F00000000ED
:102428000000803F000000000000803F0000000026
:102438000000803F17041705170617075049442066
:102448004D4F4449464945525300000000000000E2
:1024580000502D5445524D20564F4C54414745206D
:10246800434F4D5000005448524F54544C4520445B
:1024780020415454454E554154450054444120424E
:102488005245414B504F494E540000000000000097
:102498005444412050455243454E5400000000002A
:1024A80000000000005341564520414E4420455845
:1024B8004954000000000000000000000801020468
:1024C800020502060207020E00000000204E4F4ED1
:1024D800452000000000000000000000000000008F
:1024E8000041435449564500000000000000000028
:1024F8000000000000000000524154455300000055
:102508000000000000000000000000000053494CDB
:102518005645525741524500000000000000000097
:10252800000042455441464C4947485400000000C9
:1025380000000000000000000D010704070500006E
:10254800070800005243204C494E4B000000000091
:10255800000000000000000000535449434B20577E
:10256800495A415244000000000000000000525344
:10257800534920534F5552434500000000000000C6
:1025880000000000212000000C01070407050000DE
:102598000AD7233C0AD7233C0AD7233C0AD7233C33
:1025A8000AD7233C0AD7233C0AD7233C0AD7233C23
:1025B8000AD7233C5253534920534F5552434500A1
:1025C800000000000000000000525353492046520A
:1025D8004F4D0000000000000000000000005345BF
:1025E8004C454354204155580000000000000000AD
:1025F8000000005341564520414E44204558495457
:1026080000000000000000000A0104040405040E94
:102618000101010210041005020C0000535045434B
:1026280049414C204645415455524553000000004D
:1026380000535449434B20424F4F5354000000006D
:102648000000000000004D4F544F5220424F4F539E
:102658005400000000000000000000504944204DD4
:102668004F4449464945525300000000000000000D
:102678004449474954414C2049444C450000000016
:1026880000000000004C4F57204241545445525915
:10269800000000000000000000004C4556454C209A
:1026A8004D4F4445000000000000000000000054A9
:1026B8005552544C45205448524F54544C450000F0
:1026C800000000000D151E1613141B000701070358
:1026D800070407050706070707080709554E444575
:1026E8005220444556454C4F504D454E540000002D
:1026F8000000000007010000424F4F535420505281
:102708004F46494C452031000000000000524F4C14
:102718004C00000000000000000000000000000065
:102728000000504954434800000000000000000029
:1027380000000000000000594157000000000000A0
:102748000000000000000000000000004143434575
:102758004C455241544F5200000000000000000058
:10276800005452414E534954494F4E000000000056
:102778000000000000005341564520414E442045CA
:10278800584954000000000000000000424F4F5319
:10279800542050524F46494C45203200000000005A
:1027A80000524F4C4C0000000000000000000000E8
:1027B8000000000000005049544348000000000099
:1027C8000000000000000000000000594157000010
:1027D80000000000000000000000000000000000F1
:1027E800414343454C455241544F520000000000BC
:1027F80000000000005452414E534954494F4E00C6
:102808000000000000000000000053415645204130
:102818004E442045584954000000000000000000C4
:1028280000000000000040400000000000004040A0
:102838000000000000004040000080BF0000803F12
:10284800000080BF0000803F000080BF0000803F84
:102858000100010101020200020102020D06120636
:1028680017060D08120817080000000000000000F5
:102878000101020103010102020203025354494308
:102888004B20424F4F53542050524F46494C4553CA
:1028980000415558204F46462050524F46494C4516
:1028A800203100000000415558204F4E2020505242
:1028B8004F46494C452032000000000008010E0434
:1028C8001304190402060208020E00000501070499
:1028D800070500000E0E0000000000000000E144A3
:1028E800000000000000E144000000000000E14496
:1028F80000000000A4707D3F00000000A4707D3F30
:1029080000000000A4707D3F00000000A4707D3F1F
:1029180000000000A4707D3F00000000A4707D3F0F
:102928000E06130618060D07120717070D081208DA
:10293800170800000000204100002041000020414D
:102948000AD7233C0AD7233C0AD7233C0AD7233C7F
:102958000AD7233C0AD7233C53494C564552574182
:1029680052452052415445530000000000524F4C3C
:102978004C00000000000000000000000000000003
:1029880000005049544348000000000000000000C7
:10299800000000000000005941570000000000003E
:1029A80000000000000000000000000052415445F3
:1029B800000000000000000000000000000000000F
:1029C800004143524F204558504F0000000000007E
:1029D800000000000000414E474C45204558504F2C
:1029E8000000000000000000000000534156452090
:1029F800414E4420455849540000000000000000A2
:102A080007010E0413041904020602070208020E45
:102A180000000000000020415448524F54544C45D7
:102A280020424F4F5354000000000000004D4F5407
:102A38004F52205448524F54544C4520424F4F5304
:102A480054005341564520414E44204558495400AE
:102A5800000000000000000008010205020E00004E
:102A6800000000000000404016050000544F52517D
:102A7800554520424F4F535400000000000000000D
:102A8800004D4F544F5220544F5251554520424FFC
:102A98004F53540000005341564520414E442045B1
:102AA8005849540000000000000000000901040516
:102AB800040E0000000000000000C84254555254A3
:102AC8004C45204D4F444500000000000000000028
:102AD80000545552544C45205448524F54544C4578
:102AE8002025000000005341564520414E44204512
:102AF80058495400000000000000000014041405A8
:102B08001406140701010102010301045654582058
:102B1800434F4E54524F4C53000000000000000039
:102B28000042414E44000000000000000000000088
:102B38000000000000004348414E4E454C00000094
:102B48000000000000000000000000504F574552F0
:102B5800204C4556454C00000000000000000000D5
:102B68005049544D4F44450000000000000000004B
:102B780000000000005341564520414E442045586E
:102B88004954000000000000000000000407030191
:102B980056545820434F4E54524F4C530000000097
:102BA8000000000000534D41525420415544494F04
:102BB800000000000000000000004E4F5420434F6A
:102BC8004E464947555245440000000000000000A9
:102BD80009010404040504060407040E202020410A
:102BE80043524F2020200000000000000000000099
:102BF8000020204C4556454C2020200000000000B5
:102C080000000000000020524143454D4F4445203C
:102C1800000000000000000000000020484F52495A
:102C28005A4F4E2020000000000000000000000065
:102C3800524D20484F52495A4F4E000000000000A4
:102C48000000000000000000494E41435449564529
:102C580000000000494E5645525400004E4F524D58
:102C6800414C0000414354495645202000000000D3
:102C7800F82C0008FC2C0008002D0008042D000882
:102C8800082D00080C2D0008102D0008142D000830
:102C9800182D00081C2D0008202D0008242D0008E0
:102CA800282D00082C2D0008302D0008342D000890
:102CB800382D00083C2D0008402D0008442D000840
:102CC800482D00084C2D0008502D0008542D0008F0
:102CD800582D00085C2D0008602D0008642D0008A0
:102CE800682D00086C2D0008702D0008742D000850
:102CF8002030000020310000203200002033000086
:102D08002034000020350000203600002037000065
:102D18002038000020390000313000003131000037
:102D28003132000031330000313400003135000009
:102D380031360000313700003138000031390000E9
:102D480032300000323100003232000032330000ED
:102D580032340000323500003236000032370000CD
:102D68003238000032390000333000004552524FEB
:102D78005200000020202020202020202020202079
:102D8800202020000000000000202A2A4449534146
:102D9800524D45442A2A202000000000000020202F
:102DA8002A2A41524D45442A2A202020200000008A
:102DB80000000020535449434B20424F4F535420A6
:102DC800312000000000000020535449434B2042AA
:102DD8004F4F5354203220000000000000202A2AC0
:102DE8004641494C534146452A2A2020000000000C
:102DF80000005448524F54544C45205341464554C2
:102E0800590000000000002041524D494E47205310
:102E18004146455459200000000000002A2A4C4F22
:102E28005720424154544552592A2A0000000000B4
:102E3800002A2A4D4F544F5220544553542A2A20D1
:102E480000000000000020202A2A545552544C4506
:102E58002A2A202020000000000000202A2A4C4FA7
:102E68004F5054494D452A2A2020000000000000F8
:102E7800CDCC4C3FCDCC4C3FCDCCCC3E00001D44FE
:102E880000001D4400009D430000484200004842E5
:102E9800000048420000F0420000F0420000F0420A
:102EA80000001943323228145A5A5A32324B000061
:102EB8000006020405030D02050D0000040032009F
:102EC80096006400C80000004552524F5220696EB7
:102ED80076616C696420636F646520282564290D18
:102EE8000A0000004552524F5220696E76616C69A3
:102EF800642073697A652028256420767320256408
:102F0800290D0A004552524F5220696E76616C694C
:102F1800642063686B73756D2028256420767320A0
:102F28002564290D0A0000004552524F5220756E43
:102F38006B6F776E20636F646520282564290D0AFE
:102F48000000000076616C756500000043424F5236
:102F5800204552524F52202564000000494E5641E8
:102F68004C49442056414C5545202564000000003A
:102F780066696C655F6E756D0000000066696C655A
:102F880073000000494E56414C494420434D4420AB
:102F9800256400004F4B0000494E56414C494420DF
:102FA80053495A4520256420767320256400000083
:102FB80064657465637465640000000062616E6432
:102FC800000000007069745F6D6F646500000000A8
:102FD800706F7765725F6C6576656C00E916D5165B
:102FE800C116AD169916851671165D1665167816F2
:102FF8008B169E16B116C416D716EA16491635163C
:1030080021160D16FD161117251739176C1680167F
:103018009416A816BC16D016E416F8161A163F16FB
:1030280064168916AE16D316F8161D170710192838
:1030380019006400C8009001232D302B2000686C13
:103048004C006566674546470030313233343536C3
:1030580037383941424344454600303132333435FC
:0C30680036373839616263646566000029
:04307400250001082A
:04307800010001084A
:10307C000100000000000000000000000000000043
:10308C0000000000000002400000000001000000F1
:10309C0000000000000002400100000002000000DF
:1030AC0001000000000002400200000004000000CB
:1030BC0002000000000002400300000008000000B5
:1030CC00030000000000024004000000100000009B
:1030DC000400000000000240050000002000000079
:1030EC000500000000000240060000004000000047
:1030FC0006000000000002400700000080000000F5
:10310C000700000000000240080000000001000061
:10311C00080000000000024009000000000200004E
:10312C0009000000000002400A000000000400003A
:10313C000A000000000002400B0000000008000024
:10314C000B000000000002400C000000001000000A
:10315C000C000000000002400D00000000200000E8
:10316C000D000000000002400E00000000400000B6
:10317C000E000000000002400F0000000080000064
:10318C000F000000000402400000000001000000DD
:10319C0000000000000402400100000002000000DA
:1031AC0001000000000402400200000004000000C6
:1031BC0002000000000402400300000008000000B0
:1031CC000300000000040240040000001000000096
:1031DC000400000000040240050000002000000074
:1031EC000500000000040240060000004000000042
:1031FC0006000000000402400700000080000000F0
:10320C00070000000004024008000000000100005C
:10321C000800000000040240090000000002000049
:10322C0009000000000402400A0000000004000035
:10323C000A000000000402400B000000000800001F
:10324C000B000000000402400C0000000010000005
:10325C000C000000000402400D00000000200000E3
:10326C000D000000000402400E00000000400000B1
:10327C000E000000000402400F000000008000005F
:10328C000F000000000802400000000001000000D8
:10329C0000000000000802400100000002000000D5
:1032AC0001000000000802400200000004000000C1
:1032BC0002000000000802400300000008000000AB
:1032CC000300000000080240040000001000000091
:1032DC00040000000008024005000000200000006F
:1032EC00050000000008024006000000400000003D
:1032FC0006000000000802400700000080000000EB
:10330C000700000000080240080000000001000057
:10331C000800000000080240090000000002000044
:10332C0009000000000802400A0000000004000030
:10333C000A000000000802400B000000000800001A
:10334C000B000000000802400C0000000010000000
:10335C000C000000000802400D00000000200000DE
:10336C000D000000000802400E00000000400000AC
:10337C000E000000000802400F000000008000005A
:10338C000F000000000C02400200000004000000CE
:10339C00020000000100000000000000000000001E
:1033AC0000000000000000000100000000100140BF
:1033BC00070000000B0A000002000000004400405F
:1033CC00070000000403000004000000004C004053
:1033DC00080000000201000006000000001401407B
:1033EC0008000000282700004C19002000000000F5
:1033FC00000000008000000001000000C01200006E
:10340C0001000000010101010101010101010101A3
:10341C00010101010000000000000000000000009C
:10342C000000000000000000000000000000000090
:10343C000000000000000000000000000000000080
:10344C000000000000000000000000000000000070
:10345C0000000000010000000030014005000000E9
:10346C00060708000200000000000006030200002E
:10347C0040640240000020103A0000000080201040
:10348C000300000058640240000000183B000000DC
:10349C000080001802000000003800400500000009
:1034AC001E1F2000010000000000000000030000AF
:1034BC0058600240000000180E0000000080001848
:1034CC000400000070600240200000200F0000008B
:1034DC002080002003000000003C0040060000009B
:1034EC002B2C2D000100000000000000000000004B
:1034FC0010600240200000100B0000002080001023
:10350C0007000000B8600240000000282F000000F7
:10351C000080002863550000318C0108B98C01082B
:10352C00E18C010800000000F58B0108258E0108D4
:10353C00858C01088D8D0108000000000000000042
:10354C00258C0108FF00000009024300020100C0A5
:10355C0032090400000102020100052400100105DB
:10356C00240100010424020205240600010705823F
:10357C00030800FF09040100020A0000000705010E
:10358C000240000007058102400000009D8E0108EA
:10359C00C18E0108418F0108CD8E01087D8F010875
:1035AC00619201089D91010845910108E59001087F
:1035BC0015910108C9900108B1900108F590010816
:1035CC0005910108000000000000000030050020FB
:1035DC001201000202020040830440570002010263
:1035EC000301000004030904399301084593010801
:1035FC00519301086D93010895930108B19301084B
:10360C00CD93010821990108259901082D990108EC
:10361C00399901082999010831990108359901084E
:10362C0004000000EC0C0008000D0008060000006F
:10363C0001000000040000002C0D0008300D0008F3
:10364C00340D0008380D00083C0D0008440D00082E
:10365C004C0D0008540D00085C0D00080000000023
:10366C0072000000010000000000000000000000DB
:10367C0000000000000000000000803F000000007F
:10368C0066668640666686400000803F000000004B
:10369C00000000000000000000000000000000001E
:1036AC00000000000000000000000000000000000E
:1036BC0000000000000000000000000000000000FE
:1036CC0000000000000000000000000000000000EE
:1036DC0000000000000000000000000000000000DE
:1036EC0000000000000000000000000000000000CE
:1036FC0000000000000000000000000000000000BE
:10370C0000000000000000000000000000000000AD
:10371C0000000000000000000000803F00000000DE
:10372C00000000000000000000000000000000008D
:10373C00000000000000000000000000000000007D
:10374C00000000000000000000000000000000006D
:10375C00000000000000000000000000000000005D
:10376C00000000000000000000000000000000004D
:10377C00000000000000000000000000000000003D
:10378C00000000000000000000000000000000002D
:10379C0000000000000020C17B14524185EB414128
:1037AC0000000000000000000000803FF80700202F
:1037BC00D0290020F8070020D8290020F807002085
:1037CC00E0290020E4290020CC2900200000000082
:1037DC00D429002000000000DC290020000000009B
:1037EC0000000000C02A0020C12A0020C22A0020AC
:1037FC00C32A0020C42A0020C52A0020C92A002080
:10380C00CA2A0020CB2A0020CC2A0020F80700204E
:10381C00C0290020F8070020C8290020BC2900205E
:10382C0000000000C429002000000000B42A002081
:10383C005C2B0020602B0020542B0020582B0020E8
:10384C00742B0020A0290020F8070020F807002086
:10385C00682B00206C2B0020712B0020642B002087
:10386C00000000000000000000C079C4D02A002035
:10387C00CC2A0020AC290020A8290020B429002043
:10388C00A1300020A2300020A4300020A330002062
:10389C00182A0020E829002019000000042A002022
:1038AC000C2A0020002A0020082A00200202020212
:1038BC001C2A0020202A0020102A0020142A002074
:1038CC000000803F0000803F0A0101010100000060
:1038DC008813000001000000007A030A7008002021
:1038EC0000000000000000000000000000000000CC
:1038FC0000000000000000000000000000000000BC
:10390C0000000000000000000000000000000000AB
:10391C00000000000000000000000000000000009B
:10392C00000000000000000000000000000000008B
:10393C00000000000000000000000000000000007B
:10394C000000000001020304010203040607080939
:020000040801F1
:1000000010B5054C237833B9044B13B10448AFF352
:1000100000800123237010BDE008002000000000D4
:10002000D495020808B5034B1BB103490348AFF34D
:10003000008008BD00000000E4080020D4950208FC
:10004000034613F8012B002AFBD1181A0138704718
:1000500001F0FF01102A2BDB10F0070F08D010F879
:10006000013B013A8B422DD010F0070F42B3F6D17D
:10007000F0B441EA012141EA014122F007047FF096
:1000800000070023F0E80256083C85EA010586EAED
:10009000010685FA47F5A3FA87F586FA47F6A5FA29
:1000A00087F68EB9EED1F0BC01F0FF0102F0070235
:1000B00032B110F8013B013A83EA010313B1F8D1E0
:1000C0000020704701387047002D06BF35460338C1
:1000D000073815F0010F07D1013015F4807F02BFFA
:1000E000013015F4C03F0130F0BC0138704700BF4B
:1000F00070B501218AB04FF4807018F067FF0024BA
:1001000003231C4D8DF8143004A823218DF81740CB
:1001100000F01CF968460126CDE90044CDE902440F
:1001200018F018FB04A9284604948DF814408DF8A3
:100130001540069408948DF8246018F0E5FA3046CE
:1001400018F026FB3146284618F018FB32462846A0
:100150000723112118F02AFB284618F06DFB064AE8
:10016000064B128807EE902AF8EE677AC3ED007A04
:100170000AB070BD002001402A7AFF1F3819002004
:100180002DE9F041E8B10128044616D10221444886
:1001900018F05CFB80BB434D6B8807EE903AF8EE9D
:1001A000677AF5EE407AF1EE10FA06D03E4B93ED09
:1001B000007A87EE270ABDE8F0819FED3C0ABDE892
:1001C000F0810221364818F041FB002837D1354D27
:1001D000374B2A8893ED817A93ED806ADFED356A9B
:1001E000C6EE077A00EE102AB8EE407A27EEA60A8D
:1001F00020EE070ABDE8F081DFF8C080284898F8B3
:1002000000702D4E274D18F01DFB25F8170037788C
:10021000002F3CD0012F07D107233A461121204857
:1002200018F0C4FA88F800701D4818F005FB337800
:100230000133DBB2022B08BF00233370ACE71F4F42
:1002400017481D4E97F80080164D18F0FBFA3478C9
:1002500025F818009CB1012C06D107232246112154
:100260000F4818F0A3FA3C700D4818F0E5FA3378FF
:100270000133DBB2022B08BF00233370A8E707234A
:1002800001220C21064818F091FA3C70ECE7224656
:1002900007230C21024818F089FA88F80070C3E798
:1002A000002001403C190020381900200000000007
:1002B000782900203433113CFC0800200000002085
:1002C00018F056BC18F044BC08B5F32018F058FCE0
:1002D0000221182018F0AEFC092803D018F048FCC1
:1002E000012008BD002008BD00F1007000F540505D
:1002F00080000068704700BF00F1007000F54050BA
:1003000008B5800018F01EFD092806D018F030FC52
:100310000520BDE808400DF0A5BA08BD00B50121D3
:1003200083B00F2018F02EFE074B02A9D3F86821E6
:1003300041F8082DD3F8600140F20123019318F031
:1003400071FD03B05DF804FB0400002010B4054A01
:100350000B01D4180146A4680C60D0585DF8044B1A
:1003600018F060BD04000020F8B5094D0C012E19ED
:100370000146B3680B602859174618F053FD2859F9
:10038000F168FAB289B2BDE8F84018F09DBD00BF2F
:1003900004000020044B00011A181858916801222B
:1003A00089B218F08BBD00BF04000020044B00018F
:1003B0001A1818589168002289B218F07FBD00BF42
:1003C0000400002008B5044B00011A181858916861
:1003D00089B218F06DFD08BD0400002008B50020AA
:1003E0002DED028BB0EE408A00F0A2FBB0EE480A81
:1003F000012000F09DFBB0EE480A032000F098FBBE
:10040000B0EE480ABDEC028B0220BDE8084000F0C7
:100410008FBB00BF2DE9F8430022994E99489A49B5
:100420009A4B154646F8225040F8225041F8225087
:100430001C88270405D450F8224044F4803440F846
:1004400022405C88240405D450F8224044F400344F
:1004500040F822409C88270405D451F8224044F0FB
:10046000007441F82240DC88240405D451F822406D
:1004700044F0807441F822401C886400A4B21C80BF
:100480005C886400A4B25C809C886400A4B29C80F8
:10049000DC8801326400A4B2102ADC80C2D17C4C1A
:1004A000336863607B4A036853607B4B0D685D6013
:1004B00075682561456815614D681D61B568E56120
:1004C0008568D5618D68DD61F568A562C56895624E
:1004D000CD689D6235696563056955630D695D6326
:1004E00075692564456915644D691D64B569E564E0
:1004F0008569D5648D69DD64F569A565C56995650E
:10050000CD699D65356A6566056A55660D6A5D66E5
:10051000756A2567456A15674D6A1D67B56AE5679F
:10052000856AD5678D6ADD67F56AC4F88850C56A43
:10053000C2F88850CD6AC3F88850356BC4F894501F
:10054000056BC2F894500D6BC3F89450756BC4F8EA
:10055000A050456BC2F8A0504D6BC3F8A050B56BCE
:10056000C4F8AC50856BC2F8AC508D6BC3F8AC507E
:10057000F56BC4F8B850C06BC2F8B800474D484896
:10058000C96BC3F8B810474E0478A98D96FBF1F1FA
:10059000013907EE901AF8EEE76ADFED437A9FED36
:1005A000437A9FED436A434F434897F80080434F97
:1005B000F0EE675AE6EE875A04EB080C4FF000099C
:1005C000E6EE867A012CC0F800C0BCEEE57AFCEEBF
:1005D000E77AF962C7F8349087ED0E7AC7ED0F7AA3
:1005E00027D0B8F1010F01D0BDE8F883344C354A6B
:1005F000A2602046E360344918F02AFA3023636091
:1006000020464146A7F8109018F0FAF942463846BD
:100610004FF4606118F0F2FEA98D96FBF1F13846B7
:10062000013918F0F1FD41463846BDE8F84318F0AD
:10063000F9BDDFF88C80254BC8F808304046C8F873
:100640000C20214918F004FA3023C8F80430404641
:100650002146A7F8109018F0D3F9224638464FF4F7
:10066000606118F0CBFEA98D96FBF1F13846013997
:1006700018F0CAFD21463846BDE8F84318F0D2BD4F
:100680002409002064090020A4090020401900204A
:10069000E4090020A40A0020640B0020782900202F
:1006A000FD08002020480100CDCC4C3D9A99993E90
:1006B0009A99193FFE08002004090020000001401B
:1006C000A0640240180802400000382018040240CC
:1006D0002DE9F04F2DED028B9BB00DF1680B4FF023
:1006E00001084BF8648DDFF8D892DFF8D8A2A64E47
:1006F000A64CA74F9FEDA78A5946484640F20125D0
:10070000029518F08FFBDAF8001084F8008041EAB7
:100710000801CAF8001033689F4D43F480334846FF
:10072000594633600223019318F07CFBDAF800107D
:1007300084F8008041F00201CAF80010346897483C
:10074000DFF8849244F40034594634604FF4007466
:10075000019418F067FB3968914B904883F800804A
:10076000214339602A688F4C42F0007359462B6050
:100770004FF48073019318F055FB3B68884A8A4810
:1007800082F8008043F480733B602A688749884B75
:1007900042F080722A6002682260DAF800200A6063
:1007A0003A681A600268E260DAF80020CA603A68C3
:1007B000DA600268A261DAF800208A613A689A6118
:1007C00002686262DAF800204A623A685A62026895
:1007D0002263DAF800200A633A681A630268E26367
:1007E000DAF80020CA633A68DA630268A264DAF8C9
:1007F00000208A643A689A6402686265DAF8002028
:100800004A653A685A6502682266DAF800200A6684
:100810003A681A660268E266DAF80020CA663A6840
:10082000DA660268A267DAF800208A673A689A678F
:100830000268C4F88420DAF80020C1F884203A68FD
:10084000C3F884200268C4F89020DAF80020C1F8C8
:1008500090203A68C3F890200268C4F89C20DAF827
:100860000020C1F89C203A68C3F89C200268C4F8B4
:10087000A820DAF80020C1F8A8203A68C3F8A82018
:100880000068C4F8B400DAF80020C1F8B420386871
:10089000484AC3F8B4001068A060306888602868CF
:1008A0009860106860613068486128685861106815
:1008B000206230680862286818621068E062306858
:1008C000C8622868D8621068A063306888632868A6
:1008D00098631068606430684864286858641068D9
:1008E000206530680865286818651068E06530681C
:1008F000C8652868D8651068A0663068886628686A
:10090000986610686067306848672868586710689C
:10091000C4F880003068C1F880002868C3F88000FF
:100920001068C4F88C003068C1F88C002868C3F8DF
:100930008C001068C4F898003068C1F898002868E6
:10094000C3F898001068C4F8A4003068C1F8A40087
:100950002868C3F8A4001068C4F8B0003068C1F873
:10096000B0002868C3F8B0001268C4F8BC20326830
:10097000C1F8BC202A68C3F8BC2003A818F03CFCCE
:100980000D4E0E4F22E000BF10090020FD08002090
:100990001C090020CDCC4C3D180900200008024065
:1009A000FE080020E40900200C090020A40A002011
:1009B000640B0020080900200000014020480100CD
:1009C000000402401409002078290020DFF85CA10F
:1009D00006A818F0F1FC41464046002518F0F6FA4A
:1009E00003A9B9F82C3097FBF3F33046013B04938D
:1009F000ADF81450039518F0B3FB2946304618F0B3
:100A000005FC06A930460695089518F017FC2946FE
:100A1000304618F0D9FCB9F82C3097FBF3F3013BC2
:100A200007EE903A9FED3B7A0695F8EEE77AF0EE06
:100A3000486AE7EE876A06A93046FCEEE67ACDED15
:100A4000087A18F035FC2946304618F0C5FCB9F88C
:100A50002C3097FBF3F7013F07EE907A9FED2E7A4B
:100A60000695F8EEE77A06A9A7EE878A30464FF496
:100A70008067BCEEC88A8DED088A18F05BFC2946B9
:100A8000304618F0B3FC0BA817F0A8FF41464FF40E
:100A9000800018F077FA504617F0DEFE1F4A0D94DA
:100AA00040234FF0300C0BA950460C920E934FF49C
:100AB00080424FF440334FF48054CDF83CC015933E
:100AC00013920B95109514951695CDE91855CDE90F
:100AD000117417F057FF424630464FF4606118F02A
:100AE0008DFC1AA80E4B40F8683D17F0D9FD424620
:100AF0005046102117F0C4FF06F052F9094A0A4B7C
:100B00001560A0F5C330A03818601BB0BDEC028B97
:100B1000BDE8F08F9A99993E9A99193F18000240C2
:100B200045000001240C002024030020A0640240A2
:100B3000032800F2AB802DE9F0412DED028BB5EEDC
:100B4000C00AF1EE10FA82B0054600F1A080DFED98
:100B5000837AB4EE670AF1EE10FAC8BFB0EE670A06
:100B60007F4E9FED807A96ED0A6ADFED7F7A7F4FA8
:100B7000F3EE046AA6EE667A3B78E6EE267A03F098
:100B80001102012A27EE007AF0EE676ABCEEC77AFE
:100B900017EE101A89B207EE901AF8EEE77A77EEA0
:100BA000A67AFCEEE77A17EE901A8CB20ED00024EB
:100BB0009A0618D57B781B0715D46D4F3B68002B20
:100BC00040F0B78006F0ECF838600FE07B7819074A
:100BD00040F1A580DFED677AB4EEE70AF1EE10FA96
:100BE00040F19D800024624B00221A60624B6349F1
:100BF0001A680B689A427ED0614F3B88B3F5FA5F62
:100C000039D8581C80B2012A388000F0A580002A0B
:100C100008BF1424B0F57A6F09D806EB050CDFF88D
:100C200064E19CF838C04FF000082EF81C80A3F552
:100C30007A633B2B13D8640044F00104A4B2230A66
:100C400083EA1413634006EB050C03F00F0343EA39
:100C500004149CF838C04B4BA4B223F81C4041F25A
:100C6000F81398420BD92E44464B96F8384000268C
:100C700023F81460034641F6417083420AD0032DE5
:100C80000DD002B0BDEC028BBDE8F08170479FED46
:100C90003E0A65E70023032D0A603B80F1D106F090
:100CA000B7F83A4C3A4E9FED3B8A0546236801203F
:100CB00013B904F0AFFA78B906F0AAF8401BD6EDE4
:100CC000017A07EE100A67EE887AB8EE477AB4EE3A
:100CD000E77AF1EE10FAE9D42368002BD1D1012094
:100CE00004F098FA0028CCD002B0BDEC028BBDE82D
:100CF000F041FFF78FBB63009BB2190A81EA131121
:100D0000254A4B402E4402EA441403F00F0396F8A0
:100D100038101C4A23439BB222F81130AFE70B2056
:100D20008DED010A10F098FF9DED010A50B93B7856
:100D30003EE706F035F83B68184AC01A904288BF73
:100D4000002453E7DFED0B7A3B78B4EE670AF1EE4F
:100D500010FA48BF00242BE715245BE777BE7F3FDE
:100D6000782900200020FA4400004042F0050020CD
:100D7000240300206F12033B240C002020090020D4
:100D80000009002040190020000000000409002094
:100D9000F805002000247449F0FF0F0000093D0011
:100DA00070B53A4C3A4D2046002117F029FE00223A
:100DB00028464FF4606118F021FB2046354917F0B2
:100DC000A9FE2846002118F02DFA334A1368022B99
:100DD00004D0032B33D00023136070BD2F4B304958
:100DE0001B7809780B44023B0126B342166099BF79
:100DF0002C4B2D4A2D4A2E4BA2602046E3602D49F4
:100E000017F026FE00233022626020462B823146F6
:100E100017F0F6FD324628464FF4606118F0EEFAFE
:100E2000254B26499B8D91FBF3F12846013918F09B
:100E3000EBF931462846BDE8704018F0F3B91C4B79
:100E40001A4802211160A0601A49E360204617F099
:100E5000FFFD00233022626020462B82012117F023
:100E6000CFFD284601224FF4606118F0C7FA124BFB
:100E700012499B8D91FBF3F12846013918F0C4F912
:100E800028460121BDE8704018F0CCB9A0640240AA
:100E9000000001400080202004090020FD080020FF
:100EA000FE080020640B00201808024018040240CD
:100EB000A40A0020000038207829002020480100E2
:100EC000704700BF0001134B1B5C013B052B20D872
:100ED000DFE803F0070B10151A030121202018F09A
:100EE00075B80121102018F071B801214FF40030BD
:100EF00018F060B801214FF4802018F05BB8012190
:100F00004FF4002018F056B801214FF4801018F06B
:100F100051B870472803002000B50001174B1B5C37
:100F2000013B83B0052B07D8DFE803F014181C2021
:100F3000240347238DF804300023012201A88DF8F3
:100F400005308DF806308DF8072017F0A9FB03B0A7
:100F50005DF804FB25238DF80430EDE726238DF89A
:100F60000430E9E727238DF80430E5E734238DF8D2
:100F70000430E1E735238DF80430DDE72803002055
:100F8000104B1B78012B04D00F4B1B78012B16D074
:100F9000704710B50D4C40F22661606918F0E0FA18
:100FA000012803D0BDE8104012F044BD12F0FAFC55
:100FB000606940F22661BDE8104018F0F5BA03F010
:100FC000C3BA00BF280C0020290C002028030020F1
:100FD000104B1B78022B04D00F4B1B78022B16D022
:100FE000704710B50D4C40F22661606A18F0B8FAEF
:100FF000012803D0BDE8104012F01CBD12F0D2FC55
:10100000606A40F22661BDE8104018F0CDBA03F0E6
:101010009BBA00BF280C0020290C002028030020C8
:10102000104B1B78032B04D00F4B1B78032B16D0CF
:10103000704710B50D4C40F22661606B18F090FAC5
:10104000012803D0BDE8104012F0F4BC12F0AAFC55
:10105000606B40F22661BDE8104018F0A5BA03F0BD
:1010600073BA00BF280C0020290C002028030020A0
:10107000104B1B78042B04D00F4B1B78042B16D07D
:10108000704710B50D4C40F22661606C18F068FA9C
:10109000012803D0BDE8104012F0CCBC12F082FC55
:1010A000606C40F22661BDE8104018F07DBA03F094
:1010B0004BBA00BF280C0020290C00202803002078
:1010C000024B1878003018BF01207047340C002004
:1010D00008B5044B185CFFF775F9003018BF012004
:1010E00008BD00BF380C0020014B185CFFF752B957
:1010F000380C0020014B185CFFF758B9380C002061
:1011000010B50A4B82B0195C002201236846022404
:10111000ADF8042000928DF806308DF807308DF878
:101120000540FFF713F902B010BD00BF380C0020D6
:1011300010B5084B82B0195C0222002368460124D6
:10114000CDE900338DF804408DF80520FFF7FEF857
:1011500002B010BD380C0020F0B59FED2A0A2A4CD1
:1011600083B0FFF73BF9112300260125022719461A
:1011700068462370ADF8046000968DF806508DF82F
:1011800007508DF80570FFF7E1F82078FFF702F9B6
:101190001223194668466370ADF8046000968DF816
:1011A00006508DF807508DF80570FFF7CFF860787E
:1011B000FFF7F0F82A2319466846A370ADF80460DB
:1011C00000968DF806508DF807508DF80570FFF7E2
:1011D000BDF8A078FFF7DEF8292368461946ADF878
:1011E0000460E37000968DF805708DF806508DF858
:1011F0000750FFF7ABF8E078FFF7CCF8042003B016
:10120000F0BD00BF00000000380C002008B5FFF75B
:101210005FFA9FED030ABDE80840FFF7DFB800BFA3
:10122000000000002DE9F04387B001AC84E80E0017
:101230000F9C9DF804109DF80550029A9DF80C60D3
:10124000012330382370102820D8DFE810F03A004E
:101250005100670056005F0072001F0087001F00EA
:10126000FB001C01E3001F0011003D01530124009D
:10127000AA4B12781B788DF81020022B0E9A05923B
:101280008DF811108DF8125000F04281022318469B
:1012900007B0BDE8F083A14B1B78042BF6D104A85E
:1012A0008DF8106005928DF811108DF8125002F033
:1012B000A3FF302800F00381C0280CBF04230F23B4
:1012C000E5E7974D2B78002B00F0F980934B1A78C7
:1012D000042A09D80123934013F0160F04D002F01A
:1012E000B1FD002840F0EB8000232B800F23CEE7D8
:1012F0000E9A6C2313700023C9E70E980423C821AB
:1013000002224370017000232270C0E7FFF7E0F96A
:101310009FED840AFFF762F80023B8E7824B03CB06
:10132000092525700E9C1A782272002320606160C6
:10133000ADE71378032B00F2E380784A7B4C1278F8
:101340002370042A06D8012303FA02F212F0160FC2
:1013500040F0EE80724A0023138098E7704D00231E
:101360002B801378032B00F2CB80704A4FF00309D7
:1013700013702E464FF210374FF21048304602F0ED
:10138000C5FAC8B32B8823F02002BA4200F00781C7
:10139000434500F004814FF29032934200F0FF8009
:1013A0004FF65002934200F0FA8003F5BA520F3222
:1013B00092B2012A40F2F38023F0080249F2073189
:1013C0008A4200F0F28049F20A32934200F0ED8046
:1013D00049F20B42934200F0E88041F606729342D4
:1013E00000F0E78043F20632934200F0E28043F2DD
:1013F0000642934200F0DD8009F1FF3313F0FF094C
:10140000BCD1A5F800900F23042222700E992A68FF
:101410000A603CE7414B8DF810601B780592042B65
:101420008DF811108DF8125049D8012202FA03F3F9
:1014300013F0160F43D004A802F074FE00283ED12A
:101440000F2324E7354B1978012902D004297FF4B2
:101450001DAF13780E9A042913704FF000020CBFD1
:101460009B005B00DBB28DF81020059204A80022DF
:101470008DF811308DF8122002F084FD00280CBF89
:101480000F23002303E72548137800788DF81030E8
:1014900004280E9B05938DF811108DF812503FF61D
:1014A000F5AE0123834013F0160F3FF4EFAE04A90D
:1014B00002F032FD0028C3D09DF8103023700023C5
:1014C000184607B0BDE8F083144B8DF810601B7808
:1014D0000592012B8DF811108DF812503FF4D6AE05
:1014E000022BADD104A802F0B3FD002814BF0023E5
:1014F0000F23CCE61278022A04D82AB90923C6E6BB
:101500000823C4E6042AF9D1044900230A70BEE680
:1015100004A802F025FD0028CED191E73C0C002064
:10152000340C002000000000680400084819002066
:10153000224802F0E3FC012D7FF40CAF2278204E0C
:1015400000230593B15C049304A802238DF8145082
:101550008DF81530FEF7FAFE2378F05CFEF726FFD3
:1015600005F07CFC054605F079FC401BB0F5967F44
:10157000F9D32378F05CFEF70DFF23780022F15CAD
:10158000ADF814200123022404A804928DF816302B
:101590008DF817308DF81540FEF7D8FEDAE6094AC7
:1015A00001231370EB7000232EE7064A0223137009
:1015B000F8E7044A04231370F4E700BF340C00205A
:1015C000380C00203C0C002038B50D46044616F0BF
:1015D000BFF80028C0F2AD82D149204616F0F6FAD5
:1015E0000028C0F2A6822946204616F0CDF8002831
:1015F000C0F29F82CB49204616F0E8FA0028C0F2DC
:101600009882691C204616F0BFF80028C0F291822B
:10161000C549204616F0DAFA0028C0F28A82A91CD1
:10162000204616F0B1F80028C0F28382BF49204658
:1016300016F0CCFA0028C0F27C82E91C204616F095
:10164000A3F80028C0F27582B949204616F0BEFA08
:101650000028C0F26E82291D204616F095F8002859
:10166000C0F26782B349204616F0B0FA0028C0F2F3
:101670006082691D204616F087F80028C0F2598262
:10168000AD49204616F0A2FA0028C0F25282A91DE8
:10169000204616F079F80028C0F24B82A749204670
:1016A00016F094FA0028C0F24482E91D204616F094
:1016B0006BF80028C0F23D82A149204616F086FA58
:1016C0000028C0F2368205F10801204616F05CF8C9
:1016D0000028C0F22E829B49204616F077FA002897
:1016E000C0F2278205F10901204616F04DF80028C6
:1016F000C0F21F829449204616F068FA0028C0F212
:10170000188205F10A01204616F03EF80028C0F2C2
:1017100010828E49204616F059FA0028C0F209823C
:1017200005F10B01204616F02FF80028C0F20182C7
:101730008749204616F04AFA0028C0F2FA8105F1DE
:101740000C01204616F020F80028C0F2F2818149F1
:10175000204616F03BFA0028C0F2EB8105F10D019E
:10176000204616F035F80028C0F2E3817A49204679
:1017700016F02CFA0028C0F2DC8105F10F0120469A
:1017800016F002F80028C0F2D4817449204616F001
:101790001DFA0028C0F2CD8105F11001204615F098
:1017A000F3FF0028C0F2C5816D49204616F00EFAFD
:1017B0000028C0F2BE8105F11101204615F0E4FFBA
:1017C0000028C0F2B6816749204616F0FFF90028CC
:1017D000C0F2AF8105F11201204615F0D5FF0028B7
:1017E000C0F2A7816049204616F0F0F90028C0F247
:1017F000A08105F11301204615F0C6FF0028C0F2B4
:1018000098815A49204616F0E1F90028C0F29181EA
:1018100005F11401204615F0B7FF0028C0F28981B8
:101820005349204616F0D2F90028C0F2828105F112
:101830001501204615F0A8FF0028C0F27A814D4915
:10184000204616F0C3F90028C0F2738105F1160195
:10185000204615F099FF0028C0F26B8146492046CA
:1018600016F0B4F90028C0F2648105F11701204692
:1018700015F08AFF0028C0F25C814049204616F02E
:10188000A5F90028C0F2558105F11801204615F090
:101890007BFF0028C0F24D813949204616F096F9A9
:1018A0000028C0F2468105F11901204615F06CFFB1
:1018B0000028C0F23E813349204616F087F90028FF
:1018C000C0F2378105F11A01204615F05DFF0028AE
:1018D000C0F22F812C49204616F078F90028C0F27A
:1018E000288105F11B01204615F04EFF0028C0F2AB
:1018F00020812649204616F069F90028C0F2198196
:1019000005F11C01204615F03FFF0028C0F21181AF
:101910001F49204616F05AF90028C0F20A8139E022
:10192000C8010008D8010008E8010008F801000813
:101930000002000808020008180200082C02000833
:10194000380200084402000854020008640200083B
:10195000740200088802000890020008A40200082F
:10196000B4020008CC020008D8020008F002000807
:10197000FC020008100300082003000830030008E0
:1019800040030008540300086803000878030008B7
:101990008803000805F11D01204615F0F5FE00281A
:1019A000C0F2C7806349204616F010F90028C0F243
:1019B000C08005F11E01204615F0E6FE0028C0F2A9
:1019C000B8805D49204616F001F90028C0F2B180C8
:1019D00005F11F01204615F0D7FE0028C0F2A980AE
:1019E0005649204616F0F2F80028C0F2A28005F110
:1019F0002001204615F0C8FE0028C0F29A80504908
:101A0000204616F0E3F80028C0F2938005F121018A
:101A1000204615F0B9FE0028C0F28B8049492046C7
:101A200016F0D4F80028C0F2848005F12201204687
:101A300015F0AAFE00287CDB4349204616F0C6F8C4
:101A4000002876DB05F12301204615F09DFE0028D5
:101A50006FDB3E49204616F0B9F8002869DB05F136
:101A60002401204615F090FE002862DB384920460C
:101A700016F0ACF800285CDB05F12501204615F0D6
:101A800083FE002855DB3349204616F09FF80028D6
:101A90004FDB05F12601204615F076FE002848DBD5
:101AA0002D49204616F092F8002842DB05F1270167
:101AB000204615F069FE00283BDB2849204616F039
:101AC00085F8002835DB05F12801204615F05CFE7D
:101AD00000282EDB2249204616F078F8002828DB63
:101AE000102205F14001204616F000F8002820DB06
:101AF0001C49204616F06AF800281ADB102205F16E
:101B00005001204615F0F2FF002812DB164920464E
:101B100016F05CF800280CDB05F16001102220466D
:101B200015F0E4FF002804DB2046BDE8384015F03E
:101B30001DBE38BD98030008A8030008BC030008B8
:101B4000C8030008DC030008EC03000804040008D4
:101B5000200400082C040008380400084804000889
:101B6000540400085C040008600400082DE9F047F4
:101B700086B00F4603A9044615F03EFB051E39DB6F
:101B8000DFF87483DFF87493DFF874A3002603A9E9
:101B9000204615F085FBB0422CD902AA01A92046A7
:101BA00015F01AFD051E25DB4246DDE9010113F0A3
:101BB0005DFF38B13946204615F094FB051E19DB50
:101BC0000136E4E74A46DDE9010113F04FFFA8B909
:101BD0005246DDE9010113F049FFB8B9AF4ADDE92A
:101BE000010113F043FFC0B1F91C204615F07AFB48
:101BF000051EE5DA284606B0BDE8F087791C2046C8
:101C000015F070FB051EF5DB0136C0E7B91C204658
:101C100015F068FB051ED3DAECE7A14ADDE9010106
:101C200013F024FF60B99F4ADDE9010113F01EFFA4
:101C300068B1791D204615F055FB051EC0DAD9E7BD
:101C4000391D204615F04EFB051EB9DAD2E7964A3B
:101C5000DDE9010113F00AFF30B1B91D204615F08E
:101C600041FB051EACDAC5E7904ADDE9010113F03E
:101C7000FDFE30B1F91D204615F034FB051E9FDA3C
:101C8000B8E78B4ADDE9010113F0F0FE38B107F146
:101C90000801204615F026FB051E91DAAAE7854AC1
:101CA000DDE9010113F0E2FE38B107F10901204638
:101CB00015F018FB051E83DA9CE77F4ADDE9010178
:101CC00013F0D4FE40B107F10A01204615F00AFBDB
:101CD000051EBFF675AF8DE7784ADDE9010113F007
:101CE000C5FE40B107F10B01204615F0FBFA051EB9
:101CF000BFF666AF7EE7724ADDE9010113F0B6FE7A
:101D000040B107F10C01204615F0ECFA051EBFF6B4
:101D100057AF6FE76B4ADDE9010113F0A7FE40B151
:101D200007F10D01204615F00BFB051EBFF648AF6D
:101D300060E7654ADDE9010113F098FE40B107F163
:101D40000F01204615F0CEFA051EBFF639AF51E758
:101D50005E4ADDE9010113F089FE40B107F110018F
:101D6000204615F0BFFA051EBFF62AAF42E7584AD3
:101D7000DDE9010113F07AFE40B107F111012046BF
:101D800015F0B0FA051EBFF61BAF33E7514ADDE987
:101D9000010113F06BFE40B107F11201204615F06E
:101DA000A1FA051EBFF60CAF24E74B4ADDE901019D
:101DB00013F05CFE40B107F11301204615F092FAD2
:101DC000051EBFF6FDAE15E7444ADDE9010113F03B
:101DD0004DFE40B107F11401204615F083FA051EAF
:101DE000BFF6EEAE06E73E4ADDE9010113F03EFE26
:101DF00040B107F11501204615F074FA051EBFF633
:101E0000DFAEF7E6374ADDE9010113F02FFE40B1FE
:101E100007F11601204615F065FA051EBFF6D0AE93
:101E2000E8E6314ADDE9010113F020FE40B107F197
:101E30001701204615F056FA051EBFF6C1AED9E6C9
:101E40002A4ADDE9010113F011FE40B107F1180142
:101E5000204615F047FA051EBFF6B2AECAE6244A80
:101E6000DDE9010113F002FE40B107F1190120463E
:101E700015F038FA051EBFF6A3AEBBE61D4ADDE934
:101E8000010113F0F3FD00283CD007F11A012046B0
:101E900015F028FA051EBFF693AEABE6F801000870
:101EA0000002000808020008180200082C020008BE
:101EB00038020008440200085402000864020008C6
:101EC000740200088802000890020008A4020008BA
:101ED000B4020008CC020008D8020008F002000892
:101EE000FC0200081003000820030008300300086B
:101EF0004003000854030008C8010008D801000886
:101F0000E8010008844ADDE9010113F0AFFD40B1AA
:101F100007F11B01204615F0E5F9051EBFF650AE8E
:101F200068E67E4ADDE9010113F0A0FD40B107F14A
:101F30001C01204615F0D6F9051EBFF641AE59E644
:101F4000774ADDE9010113F091FD40B107F11D0170
:101F5000204615F0C7F9051EBFF632AE4AE6714AB3
:101F6000DDE9010113F082FD40B107F11E012046B9
:101F700015F0B8F9051EBFF623AE3BE66A4ADDE967
:101F8000010113F073FD40B107F11F01204615F068
:101F9000A9F9051EBFF614AE2CE6644ADDE901017D
:101FA00013F064FD40B107F12001204615F09AF9C5
:101FB000051EBFF605AE1DE65D4ADDE9010113F021
:101FC00055FD40B107F12101204615F08BF9051EA2
:101FD000BFF6F6AD0EE6574ADDE9010113F046FD06
:101FE00040B107F12201204615F07CF9051EBFF62D
:101FF000E7ADFFE5504ADDE9010113F037FD40B1DF
:1020000007F12301204615F06DF9051EBFF6D8AD86
:10201000F0E54A4ADDE9010113F028FD40B107F17E
:102020002401204615F05EF9051EBFF6C9ADE1E5B5
:10203000434ADDE9010113F019FD40B107F1250123
:10204000204615F04FF9051EBFF6BAADD2E53D4A60
:10205000DDE9010113F00AFD40B107F12601204638
:1020600015F040F9051EBFF6ABADC3E5364ADDE914
:10207000010113F0FBFC40B107F12701204615F0E8
:1020800031F9051EBFF69CADB4E5304ADDE901012A
:1020900013F0ECFC40B107F12801204615F022F9BD
:1020A000051EBFF68DADA5E5294ADDE9010113F056
:1020B000DDFC48B1102207F14001204614F072FD0A
:1020C000051EBFF67DAD95E5224ADDE9010113F05D
:1020D000CDFC48B1102207F15001204614F062FDFA
:1020E000051EBFF66DAD85E51B4ADDE9010113F064
:1020F000BDFC48B1102207F16001204614F052FDEA
:10210000051EBFF65DAD75E5204614F09FFE051E69
:10211000BFF656AD6EE500BF6803000878030008FF
:102120008803000898030008A8030008BC030008FF
:10213000C8030008DC030008EC03000804040008DE
:10214000200400082C040008380400084804000893
:10215000540400085C040008600400082DE9F04FF6
:10216000544C00230329C3B023804DD8DFF84C81A1
